:10000000E62FFF1B0B2883137F1883170008840A31
:100010000319FF0A080000308A000408840A8207D6
:100020000034013400340A34003464340034E834D9
:10003000033410342734433461346C3463347534FE
:100040006C34613464346F3472346134203450342D
:100050004534543400342534643400345D2D652D2A
:100060006D2D752D7D2D852D8D2D952DAF2DBA2DB9
:0C007000C52DD22DE02DEB2DF82D062E15
:1007E20031343234333434343534363437343834C3
:1007F20039342B3430343D3483160313860105100B
:10080200871301301A2438301A2480301A240C300D
:100812001A24080075087604031D122C7708803EFE
:10082200142C7708C03EF9007908FA007A081A24D5
:100832000800F400740883120313860087139124BE
:100842000630F3003030F200F20B252CF30B252C8E
:1008520000000800F300F201731C332C7008F10051
:100862007108F2070310F00D0310F30C7308031D57
:100872002D2C72080800FD230030F500F600003030
:10088200F700F8000B240B30F5008030F600B62498
:100892000130F5000030F6000030F700F8000B24BC
:1008A200AC26522CF40074088312031386008717B7
:1008B2000630F3003030F200F20B5D2CF30B5D2CAE
:1008C200000091240630F3003030F200F20B672C66
:1008D200F30B672C00008312031387130800F40143
:1008E200F501701C7A2C7208F4070318F50A7308D4
:1008F200F50701300310F20DF30DFF3E031D7B2CB3
:1009020001300310F10CF00CFF3E031D822C700825
:100912007104031D722C7508F1007408F0000800C0
:100922008312031305100630F1003030F000F00B93
:10093200982CF10B982C0000831203130514063037
:10094200F1003030F000F00BA42CF10BA42C0000CD
:100952008312031305100630F1003030F000F00B63
:10096200B02CF10BB02C00000800FA01FB017A0850
:100972007507F8007608F7000318F70AFA1BF70361
:100982007708F900790883120313FF0078088400BE
:100992000120003A031908007A087507F800760862
:1009A200F7000318F70AFA1BF7037708F90079082A
:1009B20083120313FF0078088400012053240130BE
:1009C200FA070318FB0A0030FB07B82C78087904F1
:1009D2000319142DFD01FD0AF91BFB2C0130031034
:1009E200F80DF90DFF3E031DF02C0130FC007C08D0
:1009F200FD07ED2C79087B02031D012D78087A0290
:100A0200031C092D7808FA027908031CFB03FB0278
:100A120001300310F90CF80CFF3E031D0A2D0130C2
:100A2200FD02031DFB2C7B08F9007A08F800080080
:100A3200F501F601700871040319502DF701F70A48
:100A4200F11B2F2D01300310F00DF10DFF3E031DA0
:100A5200242D0130F4007408F707212D0130031012
:100A6200F50DF60DFF3E031D302D71087302031DB7
:100A72003C2D70087202031C452D7008F2027108A9
:100A8200031CF303F302751401300310F10CF00C94
:100A9200FF3E031D462D0130F702031D2F2D760860
:100AA200F1007508F00008000030730202300319EB
:100AB2007202031808009D2D720C83120313031C8B
:100AC2000710031807140800720C83120313031C87
:100AD2008710031887140800720C83120313031C77
:100AE2000711031807150800720C83120313031C65
:100AF2008711031887150800720C83120313031C55
:100B02000712031807160800720C83120313031C42
:100B12008712031887160800720C83120313031C32
:100B22000713031807170800720C83120313031C20
:100B320087130318871708007108003A0319A22DBA
:100B4200AD2D70088400083004020318080000303C
:100B52008A002E30040782000800152E8312031328
:100B620007080139F200F3017208F0007308F1007E
:100B7200080083120313070C0139F200F301720813
:100B8200F0007308F100080083120313070CF2004F
:100B9200720C0139F300F4017308F0007408F100DB
:100BA200080083120313070CF200F20C720C0139D5
:100BB200F300F4017308F0007408F10008008312D6
:100BC2000313070E0139F200F3017208F0007308F3
:100BD200F100080083120313070EF200720C0139B0
:100BE200F300F4017308F0007408F10008008312A6
:100BF2000313070EF200F20C720C0139F300F40138
:100C02007308F0007408F100080083120313070D43
:100C1200070D0139F200F3017208F0007308F100C8
:100C22000800F001F10108007108003A03191A2EB8
:100C3200122E70088400083004020318122E0030AD
:100C42008A003630040782000800703083160313CE
:100C52008700FA01FB017B08803AFF0080307F02A7
:100C6200031D352E05307A020318AA2E7A087B045A
:100C7200031D472E0530F7000F30F600F130F50066
:100C8200F50B412EF60B412EF70B412E7B08F1009E
:100C92007A08F0000130F2000030F3005525F80127
:100CA200F9017908803AFF0080307F02031D5B2E34
:100CB200033078020318912E7808043EF000790878
:100CC2000318013E003EF100AE25700871040319BD
:100CD200802E7B08F1007A08F0000030F200F30069
:100CE20055250330F5007508F0007A082B243E3EA6
:100CF2007807F600760884008313000808000130A4
:100D0200F8070318F90A0030F9077908803AFF005A
:100D120080307F02031D8F2E03307802031C5D2E6C
:100D22007B08F1007A08F0000030F200F30055254C
:100D32000130FA070318FB0A0030FB077B08803AF0
:100D4200FF0080307F02031DA82E05307A02031CAB
:100D5200372E2030080083120313B701B801B901FE
:100D6200BA01BB01BC01262683120313AD002D0874
:100D7200BD0020303D060319B42E2B303D06031969
:100D8200022F3D303D060319022F3B083C04031D90
:100D9200E52E3808F1003708F0000A30F200003082
:100DA200F3007024831203133D087007AD0071082D
:100DB2000318710AAE002D08D03EB7002E080318A2
:100DC200013EFF3EB800FF2E3A08F1003908F0005C
:100DD2000A30F2000030F3007024831203133D083E
:100DE2007007AD0071080318710AAE002D08D03EDD
:100DF200B9002E080318013EFF3EBA003D085324F5
:100E0200142F2B30831203133D06031D142F3B08AE
:100E12003C04031D142F3D08532401308312031395
:100E2200BB000030BC003D30831203133D06031D9E
:100E3200B42E3D0853241B3083120313AD002D083A
:100E4200A00039083707A1003A0803183A0A380700
:100E5200A2002F3032272F30F5000030F600B624E2
:100E6200080083120313AB002130A3002308A6005D
:100E72000130A007FF30200784000B20A3002308C5
:100E8200AC002C080319E12F25302C060319552F2D
:100E92002C08A3002B088400230883138000013050
:100EA200A3002308AB07392FA7010130A007FF30A9
:100EB200200784000B20AC00003A0319E12F643AAA
:100EC2000319672F0D3A0319672F392F260884005B
:100ED20083130008A900840A0008AA000230A300B4
:100EE2002308A607AA1F7E2F0330A3002308A70406
:100EF200A909AA09A90A0319AA0AAC01AC0A053070
:100F02002C0603199D2F2C08A3002307013E840001
:100F12000B20A4000B20A50025082A02031D932FF5
:100F220024082902031C9D2F0130A3002308AC07CB
:100F320005302C06031D842F270803390319AC2F13
:100F42002D30A3002B088400230883138000013076
:100F5200A3002308AB072C08A3002308A800FF3036
:100F6200A3002308A807280A0319392F0A30F8001A
:100F72000030F9002808A3002307013E84000B205B
:100F8200F0000B20F1002A08F3002908F2001925CD
:100F92007108FB007008FA00E7247808303E8312DB
:100FA2000313A4002408AC002C08A3002B0884001F
:100FB2002308831380000130A3002308AB07B02F5E
:100FC2002B088400831380010800F123BE00F22362
:100FD200BF00F323C000F423C100F523C200F623AF
:100FE200C300F723C400F823C500F923C600FA237F
:0E0FF200C700FB23C800FC23C90083013C2C70
:02400E007AFD39
:00000001FF
